:020000040800F2
:10000000B8040020C5000008151D00085914000898
:1000100000000000000000000000000000000000E0
:10002000000000000000000000000000591D000852
:100030000000000000000000171D00085B1D000804
:10004000D700000800000000D7000008D700000813
:10005000D7000008D7000008D7000008D700000824
:1000600000000000D7000008D7000008D7000008F3
:10007000D7000008D7000008D700000800000000E3
:10008000D70000080000000000000000D7000008B2
:1000900000000000D7000008D70000085D14000829
:1000A00000000000D700000800000000D700000892
:1000B0000348854600F0E6F8004800477122000832
:1000C000B80400200448804704480047FEE7FEE7E4
:1000D000FEE7FEE7FEE7FEE7BB1D0008B1000008F3
:1000E00030B50B46014600202022012409E00D46D0
:1000F000D5409D4205D31D469540491B2546954058
:1001000040191546521E002DF1DC30BDF0B51FB46C
:100110000646002082B005464024019100901BE075
:10012000019922460F46304600F020F8049A059BBC
:10013000801A994110D310461946224600F050F813
:10014000361A8F410197224601200021009F00F0BE
:1001500047F838184D4100902046641E0028DFDC27
:10016000019B00982946324607B0F0BD10B5202A01
:1001700004DB0846203AD040002110BD0B46D34096
:10018000D0402024A21A91400843194610BDD2B293
:1001900001E00270401C491EFBD270470022F6E7C6
:1001A00010B513460A4604461946FFF7F0FF2046ED
:1001B00010BD420005D04200120E52428A4201DBBD
:1001C00000207047C90508187047C217C10F50407A
:1001D00010B54018CA079623002100F019F810BD89
:1001E00010B5202A04DB0146203A9140002010BDC2
:1001F000914020239C1A0346E3401943904010BDD0
:10020000002904DA401C490001D140084000704731
:1002100070B40024050C05D11024000402D100297B
:1002200021D01124050E01D100020834050F01D19F
:100230000001241D850F01D18000A41C002801DBD2
:100240004000641C002908D020252E1B0D46F540D7
:10025000A14000D001212943084301061B1B000ACD
:10026000DB1D02D5002070BC7047DB051818801814
:100270000029F8DA401C4900F5D170BC4008400064
:1002800070470000064C0125064E05E0E36807CCE8
:100290002B430C3C98471034B442F7D3FFF70CFFC4
:1002A000182500083825000801090A2200075143D3
:1002B000000F0818C0B2704710B50A21FFF710FFF1
:1002C00000010843C0B210BD7FB504460020694656
:1002D0000873451E234E019000950290012303AA46
:1002E000D021B06800F082FC002808D100950723D7
:1002F00001AAD021B06800F0F1FB002802D0002054
:1003000004B070BD684600794006400EFFF7CCFF90
:10031000A071684640794006400EFFF7C5FF607146
:10032000684680798006800EFFF7BEFF2071684620
:10033000C0794007400FE0706846007A8006800E62
:10034000FFF7B2FFA0706846407AC006C00EFFF704
:10035000ABFF60706846807AFFF7A6FF207001202F
:10036000CEE7000000000020FEB5054611206946DA
:1003700008720020441E124E00940190012302AA2C
:10038000D021B06800F032FC002808D1009402238C
:1003900001AAD021B06800F0A1FB002801D0002004
:1003A000FEBD6846808840BA00B28011FFF70DFF9D
:1003B0000121C943FFF7FDFE28600120FEBD0000BA
:1003C000000000203EB50446002069460871A0796F
:1003D000FFF772FF694648716079FFF76DFF694664
:1003E00088712079FFF768FF6946C871E078087264
:1003F000A078FFF761FF694648726078FFF75CFFFD
:10040000694688722078FFF757FF6946C872002056
:10041000C04300900648082301AAD021806800F05C
:10042000E5FB002801D000203EBD01203EBD0000BC
:1004300000000020F8B50025044620340095227DF8
:10044000012A39D00122227503689E68760767D495
:10045000384F4E68BE424DD09E6A0F78BA40164360
:100460009E620123C26A1B079A421FD0012A1DD037
:10047000022A1BD0032A19D0042A17D0052A15D026
:10048000062A13D0072A11D002688B6856697607AE
:10049000760FB3420AD05369DB08DB005361006872
:1004A00042690B7A5B075B0F1A4342610A68102AA4
:1004B00004D0112A02D038E00220F8BD1E4883681B
:1004C000102A07D001229205134383600868102880
:1004D00003D02AE00122D205F6E71948174900683F
:1004E000FFF7FEFD0A21484300E0401E009000286F
:1004F000FBD11AE0986A0E78B2409043986209687E
:10050000102901D0112910D10B488268102904D07C
:10051000012189058A43826007E00121C905F9E7C5
:10052000816B20221143816301250020207528461C
:10053000F8BD0000011000000027014040420F00FC
:1005400024000020F8B500260446002805D0A06B42
:1005500025462035002802D007E00120F8BD002004
:10056000E0632875204600F0A9F8A06B1022C006B1
:10057000002870DB2068816849076CD4A16B1301E7
:10058000994302231943A16381688907890F0129CF
:1005900005D10168C9070FD1C16809040CD4C1682D
:1005A00018239943A3681943C160206801696368EF
:1005B00089008908194301612068C1683D4B1940D1
:1005C000C160207E617E8003C9030843A17E4B0386
:1005D0001843A36A012B02D001231B0300E0002370
:1005E0001843E36818432369022B09D000231843FA
:1005F0002B79E57E5B0018430123012D02D00AE030
:100600000423F4E7002927D0A16B20252943A16307
:10061000E16B1943E163E1690D46FF3DC23D02D044
:10062000256A294308432168CD680543CD6001252B
:10063000E16A2D07A94213D0012911D002290FD058
:1006400003290DD004290BD0052909D0062907D08C
:10065000072905D010E028E0012109040843DAE762
:1006600021684D69ED08ED004D6121684D69A78D48
:100670007F077F0F3D434D612168C9680E4D2940BA
:10068000814207D10020E063A06B80088000401CFD
:10069000A06308E0A06B022188431043A063E06BD5
:1006A0001843E06301263046F8BDA06B1043A063F9
:1006B000F8E700001902FEFFE7FF3F8310B586B0A0
:1006C000044614216846FFF769FD104920688842F6
:1006D00019D10F48826941150A43826182690A4033
:1006E0000592426909020A43426140690840059047
:1006F000802000900320019000200290092069468C
:10070000C00600F041F806B010BD00000024014012
:100710000010024070B50024014620314A78022AB8
:1007200003D004218163012416E0026813680E25BA
:10073000AB431360026813685B085B00136001221F
:10074000056C1346AB40C56B6B604A7000220A70A3
:10075000416B002900D08847204670BD203040788A
:100760007047000070B5044600F0D2F80546601CE2
:1007700002D004480078241800F0CAF8401BA042B8
:10078000FAD370BD18000020FCB500230124A1E0BD
:1007900027462A469F403A4073D04D68012D05D028
:1007A000022D03D0112D01D0122D16D185680326FC
:1007B000AC465D00AE46AE406546B543AC46CE683D
:1007C0007546AE4065462E43866046680D79BE4349
:1007D000ED06ED0F9D4035434560C6685F0003257B
:1007E000BD40AE46AE4335468E68BE402E43C66021
:1007F0004E68022E01D0122E14D1DE08B600361833
:100800000196366A5D07B446EE0E0F25B540009698
:100810006646AE43B4460D69009EB54066462E431B
:10082000019D2E6206687546AE430D79AD07AD0F8A
:10083000BD40354305604D68ED004AD5284DAE6991
:100840002643AE61AD699E08ED07ED0F0095254D7D
:10085000B6007519AC46AD689E07360F0F27B74036
:10086000BD430927FF06B84201D1002710E01E4F03
:10087000B84201D101270BE01C4FB84202D1022738
:1008800006E026E01A4FB84201D1032700E0052711
:10089000B7402F436546AF60164E35684F689543A5
:1008A000FF0300D51543356075684F689543BF0356
:1008B00000D515437560B5684F689543FF0200D5B4
:1008C0001543B560F5684F689543BF0200D51543E1
:1008D000F5605B1C0A681546DA4000D058E7FCBD9D
:1008E00000100240000001400004004800080048D9
:1008F000000C0048000401400069084000D00120BD
:100900007047002A01D08161704781627047000002
:1009100001488068704700001800002070B502464A
:1009200040325378202B1CD11378012B19D001238E
:10093000137024245470046825689D43256004685E
:1009400025681E03B5432560046825680D432560AE
:100950000068016819430160202050700020107069
:1009600070BD022070BD70B5024640325378202B16
:100970001BD11378012B18D0012414702423537039
:1009800003681D68A5431D6005682B680F263602A5
:10099000B3430902194329600068016821430160DB
:1009A000202050700020107070BD022070BD704774
:1009B000704770B503689A691968D243D40508D4A2
:1009C000CC43240605D4446C01252C4344642C02FA
:1009D000DC61530509D4CB431B0606D4436C0824C1
:1009E00023434364E3010468E361920509D4C943E6
:1009F000090606D4416C02221143416411020268C7
:100A0000D161416C0B22114201D000F0BDFD70BDDF
:100A1000026891691268436B002B00D01847704739
:100A20007047000070B5040006D025464035687850
:100A30000026002802D005E0012070BD2E7020465F
:100A400000F05CF9242068702068016849084900BA
:100A500001600F21606809068843216808612168E8
:100A60008A680120C00382438A60E1680129A16885
:100A700008D021229202114322689160E168022984
:100A800002D005E00143F7E701212268C902516065
:100A900021684A680F4B1A434A602168CA6882433A
:100AA000CA60616920690843A16909020843216895
:100AB000C860216AE069084321680860206801680D
:100AC0000122114301606664202068702663AE70C5
:100AD000002070BD0080000270470000FFB5054691
:100AE00004464035687881B0202878D128780128DC
:100AF00075D001202870FFF70BFF074601220090F8
:100B00001923D103204600F0B4FF00283CD1222055
:100B100068701020A87000266664039860620498CC
:100B200060856663618D2F48FF2903D9FF222285E6
:100B300000903BE0618D218500903DE020460299C8
:100B400000F070FF16E000F0BBFF00281CD1206809
:100B5000406A616A0870606A401C6062208D401EB5
:100B600081B22185608D401E6085608D002801D096
:100B700000290CD0608D0A9900283A462046E2D11F
:100B800000F0DEFF00281CD0012005B0F0BD00976A
:100B90000022802120460A9B00F06BFF0028F3D141
:100BA000608DFF2805D9FF222285009601231B06B0
:100BB000C4E7608D20850096208D0123C2B25B06BC
:100BC000BCE721682020C86121684A68064B1A40AA
:100BD0004A606870AE702E700020D6E7FFE70220F2
:100BE000D3E700000024008000E800FEFFB50546C2
:100BF00004464035687881B0202878D128780128CB
:100C000075D001202870FFF783FE0746012200906F
:100C10001923D103204600F02CFF00283CD12120CD
:100C200068701020A87000266664039860620498BB
:100C300060856663618D2F48FF2903D9FF222285D5
:100C400000903BE0618D218500903DE020460299B7
:100C500000F0E8FE16E000F099FF00281CD1606A61
:100C6000216800788862606A401C6062608D401E66
:100C70006085208D401E80B22085618D002901D0C5
:100C800000280CD0608D0A9900283A462046E2D10F
:100C900000F056FF00281CD0012005B0F0BD0097E1
:100CA0000022802120460A9B00F0E3FE0028F3D1B9
:100CB000608DFF2805D9FF222285009601231B069F
:100CC000C4E7608D20850096208D0123C2B25B06AB
:100CD000BCE721682020C86121684A68064B1A4099
:100CE0004A606870AE702E700020D6E7FFE70220E1
:100CF000D3E700000020008000E800FE10B586B0B9
:100D0000044614216846FFF749FA174920688842CB
:100D100028D1164C61690120400401436161616979
:100D20000140032005914002009012200190012013
:100D30000290032003900420049009206946C00615
:100D4000FFF722FDE169012040050143E161E1690E
:100D50000022014005911146172000F065F8172088
:100D600000F056F806B010BD0054004000100240DC
:100D7000704770470248816802788918816070471F
:100D80001800002010B506480168102211430160C8
:100D9000002000F007F800F027F8002010BD000048
:100DA0000020024070B504460D4D7D202978C0001A
:100DB000FFF796F901460B480068FFF791F900F03C
:100DC00033FB002809D1042C07D200222146401E03
:100DD00000F02AF800206C6070BD012070BD00009A
:100DE000180000202400002008B50848816901226D
:100DF00011438161816911400091C26901040A4374
:100E0000C261C0690840009008BD000000100240A7
:100E1000002805DBC106C90E012088400149086091
:100E20007047000000E100E010B501F017F810BDB8
:100E3000F8B505460068354CC00352D5E069002678
:100E4000C00007D4E16920040143E161E169014088
:100E5000012600912E480168C90510D40168821549
:100E600011430160FFF754FD074604E0FFF750FD12
:100E7000C01B642824D826480068C005F6D5206A1F
:100E800003273F02384020D06968394081421CD096
:100E9000206A226AB843012109040A432262226AB5
:100EA0008A4322622062C0070FD0FFF731FD009015
:100EB00008E0FFF72DFD0099411A1648814201D93B
:100EC0000320F8BD206A8007F3D5206A6968B8431B
:100ED00008432062002E04D0E1690120000781430D
:100EE000E1612878C00705D0206BA96880088000E0
:100EF000084320632878800605D5206B102188439D
:100F0000E968084320630020F8BD0000001002409B
:100F10000070004088130000F8B50F46060059D055
:100F20003A4D2868C007C00FB84209D22868400867
:100F30004000384328602868C007C00FB84249D134
:100F40003068334C81070CD5400704D56068072111
:100F50000902084360606068F0218843B168084373
:100F600060603078C00726D0706801280ED02168F4
:100F700002280ED0890700292CDA616889088900C7
:100F800001436160FFF7C4FC00900DE02168890314
:100F9000F1E78901EFE7FFF7BBFC0099411A1D4813
:100FA000814201D90320F8BD60680C2108407168B6
:100FB00089008842EFD12868C007C00FB8420BD91A
:100FC000286840084000384328602868C007C00FE0
:100FD000B84201D00120F8BD3078400706D56068DE
:100FE000072109028843F1680843606000F018F89F
:100FF0006168094A0906090F515CC8400749086041
:101000000020FFF7CFFE0020F8BD000000200240C6
:10101000001002408813000008250008240000206A
:1010200010B514A30FCB88B06C460FC415A30FCB1B
:101030000FC4184A51680C200B4603401648042B75
:1010400016D0082B14D18B021B0F6C46E45CD26ABD
:1010500004AB1207120F9A5CC90305D50023194689
:10106000FFF754F8214601E020460C4900F0D0FE7D
:1010700008B010BD02030405060708090A0B0C0D91
:101080000E0F10100102030405060708090A0B0CD5
:101090000D0E0F100010024000127A0000093D00F2
:1010A000FEB5040070D02078DC4DC0074AD06868D7
:1010B0000007800F012807D068680007800F02280A
:1010C00009D16868C00306D5286880033AD56068EE
:1010D0000028E7D036E06168012914D0012080049F
:1010E000002901D0052914D02A68012109048A4366
:1010F0002A602968814329606068002816D0FFF7BC
:1011000007FC06460EE02868012109040843286010
:10111000F2E7296801432960F5E7FFF7F9FB801B37
:1011200064286ED828688003F7D50BE0FFF7F0FB42
:10113000064604E0FFF7ECFB801B6428F1D8286822
:101140008003F7D420780126800700283CDA6868FD
:101150000007800F07D068680007800F022809D1B8
:101160006868C00306D42868800716D5E06801289F
:101170000AD112E0E0680028286816D030432860C1
:10118000FFF7C6FB074605E043E1FFF7C1FBC01BC5
:101190000228C6D828688007F7D52868F821884330
:1011A0002169C900084328600EE04008400028601B
:1011B000FFF7AEFB074604E0FFF7AAFBC01B0228BF
:1011C000AFD828688007F7D42078000722D5E069D7
:1011D0000028686A0ED030436862FFF799FB074623
:1011E00004E0FFF795FBC01B02289AD8686A8007C5
:1011F000F7D50FE0400840006862FFF789FB07461B
:1012000005E09DE0FFF784FBC01B022889D8686ACF
:101210008007F7D4207804274007002860DA0020F0
:101220000190E869C00008D4E969B8060143E961A2
:10123000E969014001200091019079480168C905E0
:1012400011D40168821511430160FFF761FB009022
:1012500005E0FFF75DFB0099401A642870D87048DC
:101260000068C005F5D5A06801280AD0002801D083
:10127000052810D0286A400840002862286AB84330
:1012800001E0286A30432862A068002812D0FFF7E6
:101290003FFB00900AE0286A38432862F1E7FFF735
:1012A00037FB0099411A5F48814249D8286A800774
:1012B000F5D50DE0FFF72CFB009006E0FFF728FBCB
:1012C0000099411A574881423AD8286A8007F5D4D4
:1012D0000198002804D0E969012000078143E961F1
:1012E0002078C00635D5606901280CD0401D686B98
:1012F00023D038436863686B400840006863FFF799
:1013000007FB064622E0686B38436863686B30432E
:101310006863FFF7FDFA064604E0FFF7F9FA801B61
:1013200002285BD8686B8007F7D5686BF821884383
:10133000A169C900084368630BE0B8436863F4E738
:101340004CE0FFF7E5FA801B022847D8686B80075E
:10135000F7D4206A00285ED069680907890F02293E
:1013600042D0012636060228286805D0B0432860FE
:10137000FFF7CEFA044633E0B0432860FFF7C8FA1F
:10138000074604E0FFF7C4FAC01B022826D82868E5
:101390008001F7D4E86AE16A000900010843E862C5
:1013A000616AA06A084369683D22120491430843B8
:1013B0006860286830432860FFF7AAFA044604E012
:1013C000FFF7A6FA001B022808D828688001F7D585
:1013D00021E0FFF79DFA001B022801D90320FEBD82
:1013E00028688001F5D416E00128F8D06868E96A19
:1013F00001221204636A02409A420AD10907E26A92
:10140000090F914205D10F2189040840A16A884241
:1014100001D00120FEBD0020FEBD000000100240F2
:101420000070004088130000094910B5401E884232
:1014300001D9012010BD074C60610321081F00F095
:101440000DFD0020A06107202061002010BD0000DC
:10145000FFFFFF0000E000E0FEE7000010B50648D7
:10146000006880694005400F034802D0FFF7A1FAE9
:1014700010BDFFF7CDFA10BD6800002010B5406A1E
:101480000021826B002A00D05163C26B002A00D079
:10149000516300F0DBFA10BDF0B504460022CE0720
:1014A00040342823B025002E05D0667842221F46FE
:1014B000B74300D0F2228E0705D544266478324324
:1014C000A34300D02A43CB0B01D0B8231A431029E1
:1014D00008D0202907D0402905D000680168914331
:1014E0000160F0BD90210A43F7E701688A69D243A1
:1014F000920701D400228A6200688169C943C90742
:1015000003D081690122114381617047F8B5054616
:1015100004464035687828218143206804D008219A
:10152000C16100202870F8BD8169C903CF0F8169AE
:10153000FE230E0C81681E408A05C168920D194079
:101540008C46E168022916D10621D3090E400B40D2
:101550009E420FD1A16C491CA164A16C0229E2D169
:101560000021A1640823C361297039462046FFF792
:101570001FFAF8BD66460121C9032046FFF78CFF1C
:10158000002028703246F0E7F8B50546044640359D
:1015900068780026AE70334AE2626685626C0A4360
:1015A000626428281ED029281CD02A281AD02E4947
:1015B0002046FFF771FF6878602801D0202068700E
:1015C0006663206BA16B294F002903D0112812D02C
:1015D000212810D0E16B002925D0122827D02228FD
:1015E00025D020E003212046FFF756FF2820687011
:1015F0001F486063E5E720680168490404D5016875
:101600000122920391430160A06BFFF7A7F8012824
:1016100009D0A06B47632E70A06BFFF77BF8002802
:1016200004D0A06B1AE0204600F010FAF8BD206844
:101630000168090404D501680122D20391430160C5
:10164000E06BFFF78BF80128EDD0E06B47632E705D
:10165000E06BFFF75FF80028E8D0E06B416B88474C
:10166000F8BD00000000FFFF038000007D140008AB
:10167000F518000870B504461648E0620025256399
:10168000202220464030064642708570C84365637C
:10169000400712D42068406A616A0870606A401C82
:1016A0006062208D002808D0401E2085608D401E7D
:1016B0006085606C04210843606407492046FFF799
:1016C000EBFE21681020C86135702046FFF704FA50
:1016D00070BD00000000FFFF03800000F8B5026845
:1016E000044616680546403568780F462021D161CA
:1016F000212806D0292804D0222808D02A2806D05C
:101700000CE042492046FFF7C7FE212005E03F4993
:101710002046491CFFF7C0FE222020632068416854
:101720000122D2031143416020684168384A1140C8
:1017300041602046FFF7D9FEF043410407D42068FA
:1017400001680122920391430160A06B08E000044C
:101750000BD4206802680121C9038A430260E06B50
:10176000002802D0006840686085F84340070421E3
:1017700000280FDB20688F43406A626A1070606A3D
:10178000401C6062208D002804D0401E2085608DA2
:10179000401E6085608D002802D0606C0843606444
:1017A0000026AE706663606C00280BD0616C20462A
:1017B000FFF7EAFE6878282803D139462046FFF76C
:1017C00059FFF8BDE06A134FB8420BD0204600F035
:1017D00023F8E7622020687026632E702046FFF70A
:1017E0007BF9F8BD6878222807D02020687026632E
:1017F0002E702046FFF7BDFAF8BD202068702663E2
:101800002E702046FFF7B4FAF8BD000001800000FA
:1018100000E800FE0000FFFF70B5054600680168A3
:1018200000262C464034A670C9434A0403D40168FC
:101830000122920304E0090404D401680122D203C6
:10184000914301606178282029290ED061782A29E6
:101850000AD160702220286302212846FFF71CFE6F
:1018600026702846FFF784FA70BD60702120286337
:1018700001212846FFF710FE26702846FFF779FA67
:1018800070BD0000F7B5044600680E468069C0438D
:10189000C0062BD420272546403520688069C043E8
:1018A000800612D5701CF8D0FFF732F80299401A62
:1018B000B04201D8002EF0D1606C384360646F7084
:1018C0000020A87028700120FEBD21681020C8618A
:1018D0002068C7612046FFF708FE20684168044A77
:1018E00011404160606C04210843E7E70020FEBD21
:1018F00000E800FEFEB5C56A044606464036019182
:101900003078012828D0012030700198D743C04397
:1019100000908006002805DBB80603D42046019914
:10192000FFF7DCFE00983D493D4AC00630D4F8067A
:101930002ED4638D1020002B10D02168C861606CFC
:10194000042108436064002D01D0954262D1616C8E
:101950002046FFF719FE5DE00220FEBD7278282ABE
:1019600008D101225206954204D120460199FFF781
:1019700081FE4FE07278292A07D18D4205D0216877
:10198000C8612046FFF7B1FD41E02168C86141E030
:101990000098400717D4780715D4608D00280CD024
:1019A0002068406A626A1070606A401C6062208D24
:1019B000401E2085608D401E6085608D002829D1E5
:1019C0008D4224D126E00098000706D4380704D4BD
:1019D00020460199FFF79AFD1CE00098800719D472
:1019E000B80717D4608D00280DD0606A2168007890
:1019F0008862606A401C6062608D401E6085208D38
:101A0000401E208506E0954201D0002D02D12046DF
:101A1000FFF702FF00203070FEBD00000000FFFF56
:101A200000000001F0B50668059C7568064F600D62
:101A3000384385438805800D11040843184320432B
:101A400005437560F0BD0000FF63FF0310B501465C
:101A500040314B780022602B04D002630A70FEF7FD
:101A6000DFFF10BD20234B7002630A70FEF79FFF5B
:101A700010BDF8B51D4617460E46044609E0681C21
:101A800007D0FEF745FF0699401AA8420BD8002D53
:101A900009D020688169304688430FD00020B842C1
:101AA000EDD00020F8BD616C20200143616440341A
:101AB00060700020A07020700120F8BD0120EEE7CA
:101AC000F7B50027202605460446403528E0204685
:101AD000029A0199FFF7D6FE002801D00120FEBD31
:101AE00020688069C043800611D420688169C94399
:101AF000490702D4218D002917D1C66120684168A9
:101B00000E4A1140416067646E70AF7013E0FEF7DB
:101B1000FFFE0299411A0198814208D8002806D098
:101B200020688069C0434007D1D40020FEBD606CAE
:101B3000304360646E702F70D0E7000000E800FE54
:101B400070B516460D4604460FE03246294620463B
:101B5000FFF798FE002801D0012070BDFEF7D8FEE7
:101B6000801BA84208D8002D06D020688069C04399
:101B70008006EAD4002070BD616C202001436164BE
:101B8000403460700020A0702070E5E770B5164604
:101B90000D46044611E0324629462046FFF772FE04
:101BA000002801D0012070BD681C06D0FEF7B0FEF1
:101BB000801BA84208D8002D06D020688069C04349
:101BC0008007E8D4002070BD616C2020014361646F
:101BD000403460700020A0702070E3E70EB5002153
:101BE0001448009101910291114A416002608160A4
:101BF000012204230C300EC0017041708170FF235C
:101C0000C170C233436003468160083319710261B9
:101C10001838FEF797FC0720009001200003019080
:101C20000004029069460348FEF704FC0EBD000064
:101C30000024014028000020F0B587B01421684638
:101C4000FEF7ACFA21484269012189050A43426145
:101C500042690A400592426949110A434261426958
:101C60000A400592426949000A43426140690926D7
:101C70000840F606059000227F213046FEF741FE1F
:101C8000134F002202213846FEF73BFE7F2000243E
:101C90000125009002946946019503943046FEF7B1
:101CA00073FD022000900294694601950394384622
:101CB000FEF76AFD032040030090019469460294F8
:101CC0003046FEF761FD07B0F0BD00000010024095
:101CD0000004004810B50D480B4901600C494160F3
:101CE000002181600161416181610122C161C260A5
:101CF0000162FEF797FE00210448FEF70FFE002167
:101D00000248FEF730FE10BD00540040680000207D
:101D10000E0900207047704773B582B00024E44379
:101D20000C4D0E460094012302AAD021A868FEF7AC
:101D30005DFF002808D1009401233246D021A86815
:101D4000FEF7CCFE002802D0002004B070BD0120B8
:101D5000FBE7000000000020704710B5FFF70AF80D
:101D600010BD10B594B030216846FEF717FA002474
:101D70000F94122000900D9401201294039005906E
:101D80000E941020109413940C94049006901194C7
:101D900008946846FFF784F907200C900D940E9480
:101DA00000210F940CA8FFF7B7F82020109013948F
:101DB00010A8FFF73DF814B010BD70471CB56A4677
:101DC000107151710020C04300900648022301AAFF
:101DD000D0218068FEF70AFF002801D000201CBD3A
:101DE00001201CBD000000200FB410B504A9074B52
:101DF00002AA039800F064F8044602A9002000F04B
:101E000007F9204610BC08BC04B018471120000890
:101E1000F8B5040C8BB2264682B25E430D0C104618
:101E2000370C5843360480190021794116466E4319
:101E3000370C36048019794126466E438919F8BD5E
:101E400030B47446641E2578641CAB4200D21D4633
:101E5000635D5B00E31830BC184700008307FF2276
:101E6000DB0E9A408907090E9940002808DB830899
:101E700009489B001B181868904308431860704776
:101E80000007000F0838830804489B001B18D86916
:101E900090430843D861704700E400E000ED00E0A3
:101EA00002E008C8121F08C1002AFAD17047704723
:101EB000002001E001C1121F002AFBD17047000081
:101EC000FFB58DB00446002506E025280AD0109AFB
:101ED0000F999047641C6D1C20780028F5D1284686
:101EE00011B0F0BD00270121484A009700E00743E8
:101EF000641C23780846203B98401042F7D1207894
:101F00002E2817D1042007436078641C2A280CD19E
:101F10000E98641C02C800910E900BE000990A22F2
:101F2000514330394018641C009020780146303904
:101F30000929F3D920780028D1D0642808D069284D
:101F400006D075281ED0109A0F9990476D1C5BE043
:101F50000A200E99019001C90E91002802DA404230
:101F60002D2102E0390504D52B216A461172012189
:101F700003E0F90704D02021F7E70BAE0B910DE049
:101F80000021FAE70A200E99019001C90E91F7E7A6
:101F90000199FEF7A5F83031761E31700028F7D18F
:101FA00003A8801B20300190780701D5009801E03C
:101FB000012000900199884201DD401A00E00020D4
:101FC0000027009006E002A8109AC05D0F99904784
:101FD0006D1C7F1C0B988742F5DB04E0109A3020C3
:101FE0000F9990476D1C0099481E00900029F5DC60
:101FF00005E03078109A761C0F9990476D1C019976
:10200000481E01900029F4DC641C65E709280100E2
:102010000A68531C0B6010707047000070B50126F1
:1020200009257603ED0631462846FEF765FC1A4C75
:10203000012805D16078C10702D0400840006070D7
:1020400031462846FEF758FC002807D16078C107C2
:1020500004D101210843607000F020F80126B60386
:1020600031462846FEF748FC012805D160788107F3
:1020700002D5FD210840607031462846FEF73CFC41
:10208000002808D160784108C90704D1022108431B
:10209000607000F00BF870BD0000002002488188DD
:1020A000491C8180704700000000002010B501200D
:1020B00000F052F80A4C01202178002906D0A080B7
:1020C000491C21700A20FEF74DFB10BD20700A202C
:1020D000FEF748FB7D200001A08000F073F910BDE1
:1020E0000000002030B5184901250A46103A48780A
:1020F00094880128E3B21BD0032819D0052817D0F3
:10210000072815D0082813D00A2811D00C280FD082
:10211000042813D0062811D009280FD00B280DD081
:10212000022808D1087880070BD01C2C04D801E0C5
:102130001F2C01D88B7030BD958030BD1E2CFBD874
:10214000F8E71D2CF8D8F5E71000002010B501467F
:10215000002000F015F810BD10B50146012000F078
:102160000FF810BD00B585B0024604A16846FFF720
:102170003BFE684600F072F805B000BD2564000023
:1021800070B50C46002853D000220925ED06202109
:102190002846FEF7B6FB0120FEF7E4FAE20901212A
:1021A0002846FEF7AEFB6006C20F02212846FEF766
:1021B000A8FBA006C20F04212846FEF7A2FBE006FA
:1021C000C20F08212846FEF79CFB01224021284629
:1021D000FEF797FB0120FEF7C5FA002240212846B2
:1021E000FEF78FFB2007C20F01212846FEF789FB6F
:1021F0006007C20F02212846FEF783FBA007C20F2B
:1022000004212846FEF77DFBE207D20F082128466D
:10221000FEF777FB012240212846FEF772FB0120E2
:10222000FEF7A0FA002240212846FEF76AFB70BDA7
:102230000122AAE77FB5084D6E463CCD3CC6022977
:1022400000D3012189006A46515C081880210843A7
:10225000C0B2FFF781FF7FBDF824000810B5044627
:1022600002E0FFF773FF641C20780028F9D110BD4D
:10227000FEF788FD504D03206870FFF772FDFFF7F1
:10228000DBFCFFF727FDFFF7A9FC4C48A860FF2007
:10229000F530FEF767FA3320FFF75EFF3220FFF7D5
:1022A0005BFF2820FFF758FF0120FFF755FF0C20A8
:1022B000FFF752FF0620FFF74FFF0820FFF74CFF04
:1022C0001720FFF749FF0120FFF746FF0C20FFF71B
:1022D00043FF0120FFF740FF8020FFF73DFF2C4622
:1022E000103435481030FDF7EFFF33480C30FEF75F
:1022F0003BF800210846FFF79DFF2579A67967790D
:102300000A2D02D23020FFF721FF2846FFF72AFFCF
:102310003A20FFF71BFF0A2F02D23020FFF716FFEB
:102320003846FFF71FFF3A20FFF710FF0A2E02D2B0
:102330003020FFF70BFF3046FFF714FF012100208C
:10234000FFF778FFFA20FEF70DFA6678A578277870
:102350001BA0FFF783FF0A2F02D23020FFF7F6FE03
:102360003846FFF7FFFE2F20FFF7F0FE0A2E02D2BD
:102370003020FFF7EBFE3046FFF7F4FE2F20FFF78B
:10238000E5FE0A2D02D23020FFF7E0FE2846FFF7D7
:10239000E9FE09490F20891CFFF7BEFC0648817839
:1023A000CA0705D04908490081700F20FFF706FDD4
:1023B000FFF734FE95E700000000002068000020D1
:1023C0003230000070B5374D01262C46103C207885
:1023D000002866D0FFF722FE20780300FFF730FDCB
:1023E000075B051526313D495B0000210846FFF7D4
:1023F00021FF2DA0FFF732FFA088FFF7B3FE207961
:102400007D210901401A2870E1E700210846FFF705
:1024100011FF28A0FFF722FFA0880C2801D86870C0
:1024200032E0A68032E0FFF79DFED0E700210846AB
:10243000FFF700FF22A0FFF711FFFFF753FEA08870
:1024400022E000210846FFF7F5FE20A0FFF706FF77
:10245000A0881728E5D8287116E000210846FFF764
:10246000E9FE1DA0FFF7FAFEA0883B28D9D86871C5
:102470000AE000210846FFF7DDFE1BA0FFF7EEFE95
:10248000A0883B28CDD8A8710A28CCD23020FFF7ED
:102490005DFEA088C7E70348FDF794FF0020207089
:1024A00095E770BD10000020536574207965617256
:1024B0003A200000536574206D6F6E74683A2000F6
:1024C00053657420646174653A200000536574207C
:1024D000686F75723A200000536574206D696E75DF
:1024E00074653A2000000000536574207365636FC3
:1024F0006E643A2000000000000000004000000070
:102500001400000054000000000000000000000063
:10251000010203040607080938250008000000200E
:1025200028000000A01E00086025000828000020E8
:1025300090040000B01E0008000000000000000031
:10254000000000000000000000030101020800007C
:1025500001000000040000000000000000127A00EA
:04000005080000B13E
:00000001FF
